:100000000C942A000C943C000C943C000C943C0092
:100010000C943C000C943C000C943C000C943C0070
:100020000C943C000C943C000C943C000C943C0060
:100030000C943C000C943C000C943C000C943C0050
:100040000C943C000C943C000C943C000C943C0040
:100050000C943C0011241FBECFE5D4E0DEBFCDBF21
:1000600020E0A0E6B0E001C01D92A037B207E1F7A2
:100070000E9473020C9435030C94000089EF90E009
:100080000197F1F700C00000A898A99880E385BB0C
:10009000AA9AE1EEF4E03197F1F700C00000AA98C7
:1000A000E9EFF0E03197F1F700C00000A898A998B7
:1000B00085BBAA9AE1EEF4E03197F1F700C00000A9
:1000C000AA98E9EFF0E03197F1F700C00000A89896
:1000D000A99885BBAA9A81EE94E00197F1F700C038
:1000E0000000AA98E9EFF0E03197F1F700C00000B6
:1000F000A898A99880E285BBAA9A81EE94E001971E
:10010000F1F700C00000AA98089595B39F7095BBC1
:1001100095B3282F207F922B95BBA898A998AA9ACF
:10012000E1EEF4E03197F1F700C00000AA9895B332
:100130009F7095BB95B38295807F892B85BBA898CE
:10014000A998AA9A81EE94E00197F1F700C0000007
:10015000AA98089589EF90E00197F1F700C0000098
:1001600088E20E94850081E00E94850086E00E946E
:1001700085008EE00E94850080E80E948500089539
:1001800095B39F7095BB95B3282F207F922B95BB7D
:10019000A89AA998AA9AE1EEF4E03197F1F700C085
:1001A0000000AA9895B39F7095BB95B38295807F08
:1001B000892B85BBA89AA998AA9A81EE94E0019709
:1001C000F1F700C00000AA98089580E80E94850019
:1001D0000895823071F018F4813031F00895833041
:1001E00069F0843081F008958FE7860F0E948500C2
:1001F00008958FEB860F0E948500089583E9860F8E
:100200000E948500089583ED860F0E948500089561
:100210000F931F93CF93DF938A01E901882311F095
:10022000611103C00E94E50002C00E94E900C530D0
:10023000D105C9F49801329522952F7023273F707C
:100240002327A7E4B3E00E94260396958795969509
:10025000879596958795C0969093650080936400E6
:100260000E94C00004C0C430D10509F0C3C0980189
:10027000369527953695279536952795A5ECB0E2C6
:100280000E942603AC01529542954F7045275F703E
:10029000452750936F0040936E009A01ADECBCEC83
:1002A0000E942603969587959695879596958795AE
:1002B0009C01220F331F880F991F880F991F880FE9
:1002C000991F820F931F9A01281B390BC901C096F1
:1002D00090936700809366000E94C0009801369555
:1002E000279536952795ABE7B4E10E942603AC012C
:1002F0005695479550936F0040936E009A01ADEC70
:10030000BCEC0E94260396958795969587959695C1
:1003100087959C01220F331F880F991F880F991F03
:10032000880F991F820F931F9A01281B390BC9014F
:10033000C09690936900809368000E94C00004C03A
:10034000C230D10509F05BC09801ADECBCEC0E9455
:100350002603AC0156954795569547955695479572
:1003600050936F0040936E009A010E942603969569
:10037000879596958795969587959C01220F331FB3
:10038000880F991F880F991F880F991F820F931F3D
:100390009A01281B390BC901C09690936B0080937A
:1003A0006A000E94C0009801ADECBCEC0E942603DC
:1003B0009695879596958795969587959C01220F9A
:1003C000331F880F991F880F991F880F991F820F5D
:1003D000931F9801281B390BC901C09690936D009B
:1003E00080936C000E94C00026976CF085E40E9408
:1003F000C00009C0C330D10509F0A2CF6FCFC13012
:10040000D10591F7D0CFDF91CF911F910F91089532
:1004100084B3876F84BB85B3807885BB08951ABA8F
:100420001BBA089587B38F6087BB88B3807F88BB72
:1004300081B3806381BB82B3806382BB08950E94D5
:1004400008020E940F020E94120208951EBC8FEF44
:100450008DBD91E09CBD1BBC8ABD19BC88BD17BC7D
:1004600086BD81EA8FBD8DE08EBD089516B880E20D
:1004700087B980E888B986E886B908958770806270
:1004800087B9369A349BFECF85B1349A0895CF93BD
:10049000DF93C82FD62F842F0E943E0280936300E3
:1004A000482F50E023E030E06D2F8C2F0E94080190
:1004B000DF91CF91089598B3907F8F70982B98BB60
:1004C000089586E00E945B0208951BBC8ABD19BC9A
:1004D00068BD0895F8940E941F020E9426020E949F
:1004E0003602789408950E946A020E943E000E949B
:1004F000AA0062E382E30E94650223E030E042E367
:1005000050E061E082E00E94080123E030E042E335
:1005100050E065E082E00E9408010E946102C0E0B4
:1005200083E00E943E028093620084E00E943E02CB
:100530008093610085E00E943E028093600043E06A
:1005400061E081E00E94470244E065E081E00E94B2
:10055000470245E069E081E00E9447029091610016
:10056000913A08F467C062E382E30E94650223E0E7
:1005700030E042E350E061E082E00E94080123E0C5
:1005800030E042E350E065E082E00E94080121E0B3
:100590002BC06EE182E30E94650223E030E042E37B
:1005A00050E061E082E00E94080123E030E04EE18B
:1005B00050E065E082E00E94080121E015C062E39E
:1005C0008EE10E94650223E030E04EE150E061E000
:1005D00082E00E94080123E030E042E350E065E061
:1005E00082E00E94080121E090916100903A08F0B9
:1005F00097CF90916200903A08F092CF909160006E
:10060000903A08F08DCF21118BCF6C2F8C2F0E9448
:10061000650223E030E040E050E061E082E00E94CB
:10062000080123E030E040E050E065E082E00E9415
:10063000080176CF90916200903A08F4AACF909189
:100640006000903A08F4BBCF2C2FCECFA29FB00110
:10065000B39FC001A39F700D811D1124911DB29FF6
:0E066000700D811D1124911D0895F894FFCF97
:00000001FF
